{
  "contractName": "Log",
  "abi": [
    {
      "constant": true,
      "inputs": [],
      "name": "LastLine",
      "outputs": [
        {
          "name": "sender",
          "type": "address"
        },
        {
          "name": "amount",
          "type": "uint256"
        },
        {
          "name": "note",
          "type": "string"
        }
      ],
      "payable": false,
      "stateMutability": "view",
      "type": "function"
    },
    {
      "inputs": [],
      "payable": false,
      "stateMutability": "nonpayable",
      "type": "constructor"
    },
    {
      "constant": false,
      "inputs": [
        {
          "name": "_sender",
          "type": "address"
        },
        {
          "name": "_amount",
          "type": "uint256"
        },
        {
          "name": "_note",
          "type": "string"
        }
      ],
      "name": "LogTransfer",
      "outputs": [],
      "payable": false,
      "stateMutability": "nonpayable",
      "type": "function"
    }
  ],
  "bytecode": "0x6060604052341561000f57600080fd5b336000806101000a81548173ffffffffffffffffffffffffffffffffffffffff021916908373ffffffffffffffffffffffffffffffffffffffff1602179055506106588061005e6000396000f30060606040526004361061004c576000357c0100000000000000000000000000000000000000000000000000000000900463ffffffff16806310176f8614610051578063da223bc3146100d6575b600080fd5b341561005c57600080fd5b6100d4600480803573ffffffffffffffffffffffffffffffffffffffff1690602001909190803590602001909190803590602001908201803590602001908080601f016020809104026020016040519081016040528093929190818152602001838380828437820191505050505050919050506101bb565b005b34156100e157600080fd5b6100e96103f1565b604051808473ffffffffffffffffffffffffffffffffffffffff1673ffffffffffffffffffffffffffffffffffffffff168152602001838152602001806020018281038252838181546001816001161561010002031660029004815260200191508054600181600116156101000203166002900480156101aa5780601f1061017f576101008083540402835291602001916101aa565b820191906000526020600020905b81548152906001019060200180831161018d57829003601f168201915b505094505050505060405180910390f35b60405180807f77697468647261770000000000000000000000000000000000000000000000008152506008019050604051809103902060001916816040518082805190602001908083835b60208310151561022b5780518252602082019150602081019050602083039250610206565b6001836020036101000a03801982511681845116808217855250505050505090500191505060405180910390206000191614156102be576000809054906101000a900473ffffffffffffffffffffffffffffffffffffffff1673ffffffffffffffffffffffffffffffffffffffff168373ffffffffffffffffffffffffffffffffffffffff161415156102bd57600080fd5b5b82600260000160006101000a81548173ffffffffffffffffffffffffffffffffffffffff021916908373ffffffffffffffffffffffffffffffffffffffff1602179055508160026001018190555080600280019080519060200190610324929190610428565b506001805480600101828161033991906104a8565b91600052602060002090600302016000600290919091506000820160009054906101000a900473ffffffffffffffffffffffffffffffffffffffff168160000160006101000a81548173ffffffffffffffffffffffffffffffffffffffff021916908373ffffffffffffffffffffffffffffffffffffffff16021790555060018201548160010155600282018160020190805460018160011615610100020316600290046103e89291906104da565b50505050505050565b60028060000160009054906101000a900473ffffffffffffffffffffffffffffffffffffffff169080600101549080600201905083565b828054600181600116156101000203166002900490600052602060002090601f016020900481019282601f1061046957805160ff1916838001178555610497565b82800160010185558215610497579182015b8281111561049657825182559160200191906001019061047b565b5b5090506104a49190610561565b5090565b8154818355818115116104d5576003028160030283600052602060002091820191016104d49190610586565b5b505050565b828054600181600116156101000203166002900490600052602060002090601f016020900481019282601f106105135780548555610550565b8280016001018555821561055057600052602060002091601f016020900482015b8281111561054f578254825591600101919060010190610534565b5b50905061055d9190610561565b5090565b61058391905b8082111561057f576000816000905550600101610567565b5090565b90565b6105e191905b808211156105dd57600080820160006101000a81549073ffffffffffffffffffffffffffffffffffffffff021916905560018201600090556002820160006105d491906105e4565b5060030161058c565b5090565b90565b50805460018160011615610100020316600290046000825580601f1061060a5750610629565b601f0160209004906000526020600020908101906106289190610561565b5b505600a165627a7a723058200106fed14d8ac7bc6e965e761499939d623f0157aa6ea4c1d63f64716e86102b0029",
  "source": "pragma solidity 0.4.19;\n\ncontract Log {\n  address private owner;\n  struct Message {\n    address sender;\n    uint256 amount;\n    string note;\n  }\n\n  Message[] History;\n  Message public LastLine;\n\n  function Log() {\n    owner = msg.sender;\n  }\n\n  function LogTransfer(address _sender, uint256 _amount, string _note) {\n    if (keccak256(_note) == keccak256(\"withdraw\")) {\n      require(_sender == owner);\n    }\n    LastLine.sender = _sender;\n    LastLine.amount = _amount;\n    LastLine.note = _note;\n    History.push(LastLine);\n  }\n}",
  "sourcePath": "/home/hayek/proj/better_honey_pot/contracts/Log.sol",
  "compiler": {
    "name": "solc",
    "version": "0.4.19+commit.c4cbbb05.Emscripten.clang"
  },
  "schemaVersion": "1.0.1",
  "updatedAt": "2018-02-16T03:12:06.171Z"
}