{
  "contractName": "Logger",
  "abi": [
    {
      "constant": false,
      "inputs": [
        {
          "name": "_sender",
          "type": "address"
        },
        {
          "name": "_amount",
          "type": "uint256"
        },
        {
          "name": "_note",
          "type": "string"
        }
      ],
      "name": "LogTransfer",
      "outputs": [],
      "payable": false,
      "stateMutability": "nonpayable",
      "type": "function"
    },
    {
      "constant": true,
      "inputs": [],
      "name": "LastLine",
      "outputs": [
        {
          "name": "sender",
          "type": "address"
        },
        {
          "name": "amount",
          "type": "uint256"
        },
        {
          "name": "note",
          "type": "string"
        }
      ],
      "payable": false,
      "stateMutability": "view",
      "type": "function"
    }
  ],
  "bytecode": "0x6060604052341561000f57600080fd5b6105558061001e6000396000f30060606040526004361061004c576000357c0100000000000000000000000000000000000000000000000000000000900463ffffffff16806310176f8614610051578063da223bc3146100d6575b600080fd5b341561005c57600080fd5b6100d4600480803573ffffffffffffffffffffffffffffffffffffffff1690602001909190803590602001909190803590602001908201803590602001908080601f016020809104026020016040519081016040528093929190818152602001838380828437820191505050505050919050506101bb565b005b34156100e157600080fd5b6100e96102ee565b604051808473ffffffffffffffffffffffffffffffffffffffff1673ffffffffffffffffffffffffffffffffffffffff168152602001838152602001806020018281038252838181546001816001161561010002031660029004815260200191508054600181600116156101000203166002900480156101aa5780601f1061017f576101008083540402835291602001916101aa565b820191906000526020600020905b81548152906001019060200180831161018d57829003601f168201915b505094505050505060405180910390f35b82600160000160006101000a81548173ffffffffffffffffffffffffffffffffffffffff021916908373ffffffffffffffffffffffffffffffffffffffff1602179055508160018001819055508060016002019080519060200190610221929190610325565b506000805480600101828161023691906103a5565b91600052602060002090600302016000600190919091506000820160009054906101000a900473ffffffffffffffffffffffffffffffffffffffff168160000160006101000a81548173ffffffffffffffffffffffffffffffffffffffff021916908373ffffffffffffffffffffffffffffffffffffffff16021790555060018201548160010155600282018160020190805460018160011615610100020316600290046102e59291906103d7565b50505050505050565b60018060000160009054906101000a900473ffffffffffffffffffffffffffffffffffffffff169080600101549080600201905083565b828054600181600116156101000203166002900490600052602060002090601f016020900481019282601f1061036657805160ff1916838001178555610394565b82800160010185558215610394579182015b82811115610393578251825591602001919060010190610378565b5b5090506103a1919061045e565b5090565b8154818355818115116103d2576003028160030283600052602060002091820191016103d19190610483565b5b505050565b828054600181600116156101000203166002900490600052602060002090601f016020900481019282601f10610410578054855561044d565b8280016001018555821561044d57600052602060002091601f016020900482015b8281111561044c578254825591600101919060010190610431565b5b50905061045a919061045e565b5090565b61048091905b8082111561047c576000816000905550600101610464565b5090565b90565b6104de91905b808211156104da57600080820160006101000a81549073ffffffffffffffffffffffffffffffffffffffff021916905560018201600090556002820160006104d191906104e1565b50600301610489565b5090565b90565b50805460018160011615610100020316600290046000825580601f106105075750610526565b601f016020900490600052602060002090810190610525919061045e565b5b505600a165627a7a72305820e47d0804178f0a268a54c2635d934115a42ae3d08eb05045b5ac4bc5fec521100029",
  "source": "pragma solidity 0.4.19;\n\ncontract TrustFund {\n  uint256 public minDeposit;\n  mapping (address => uint256) balances;\n  Logger public TrustLog;\n\n  function TrustFund(uint256 _minDeposit, address _log) public payable {\n      minDeposit = _minDeposit;\n      TrustLog = Logger(_log);\n  }\n\n  function deposit() public payable returns (bool) {\n    if (msg.value > minDeposit) {\n      balances[msg.sender]+=msg.value;\n      TrustLog.LogTransfer(msg.sender,msg.value,\"deposit\");\n    }\n  }\n\n  function withdraw(uint256 _amount) public {\n    if(_amount <= balances[msg.sender]) {\n      if(msg.sender.call.value(_amount)()) {\n        balances[msg.sender] -= _amount;\n        TrustLog.LogTransfer(msg.sender, _amount, \"withdraw\");\n      }\n    }\n  }\n\n  function checkBalance(address _addr) public view returns (uint256) {\n    return balances[_addr];\n  }\n}\n\ncontract Logger {\n  struct Message {\n    address sender;\n    uint256 amount;\n    string note;\n  }\n\n  Message[] History;\n  Message public LastLine;\n\n  function LogTransfer(address _sender, uint256 _amount, string _note) {\n    LastLine.sender = _sender;\n    LastLine.amount = _amount;\n    LastLine.note = _note;\n    History.push(LastLine);\n  }\n}",
  "sourcePath": "/home/hayek/proj/better_honey_pot/contracts/TrustFund.sol",
  "compiler": {
    "name": "solc",
    "version": "0.4.19+commit.c4cbbb05.Emscripten.clang"
  },
  "schemaVersion": "1.0.1",
  "updatedAt": "2018-02-16T03:09:38.388Z"
}