{
  "contractName": "TrustFund",
  "abi": [
    {
      "constant": true,
      "inputs": [],
      "name": "minDeposit",
      "outputs": [
        {
          "name": "",
          "type": "uint256"
        }
      ],
      "payable": false,
      "stateMutability": "view",
      "type": "function"
    },
    {
      "constant": true,
      "inputs": [],
      "name": "TrustLog",
      "outputs": [
        {
          "name": "",
          "type": "address"
        }
      ],
      "payable": false,
      "stateMutability": "view",
      "type": "function"
    },
    {
      "inputs": [
        {
          "name": "_minDeposit",
          "type": "uint256"
        },
        {
          "name": "_log",
          "type": "address"
        }
      ],
      "payable": true,
      "stateMutability": "payable",
      "type": "constructor"
    },
    {
      "constant": false,
      "inputs": [],
      "name": "deposit",
      "outputs": [
        {
          "name": "",
          "type": "bool"
        }
      ],
      "payable": true,
      "stateMutability": "payable",
      "type": "function"
    },
    {
      "constant": false,
      "inputs": [
        {
          "name": "_amount",
          "type": "uint256"
        }
      ],
      "name": "withdraw",
      "outputs": [],
      "payable": false,
      "stateMutability": "nonpayable",
      "type": "function"
    },
    {
      "constant": true,
      "inputs": [
        {
          "name": "_addr",
          "type": "address"
        }
      ],
      "name": "checkBalance",
      "outputs": [
        {
          "name": "",
          "type": "uint256"
        }
      ],
      "payable": false,
      "stateMutability": "view",
      "type": "function"
    }
  ],
  "bytecode": "0x60606040526040516040806105f2833981016040528080519060200190919080519060200190919050508160008190555080600260006101000a81548173ffffffffffffffffffffffffffffffffffffffff021916908373ffffffffffffffffffffffffffffffffffffffff1602179055505050610570806100826000396000f30060606040526004361061006d576000357c0100000000000000000000000000000000000000000000000000000000900463ffffffff1680632e1a7d4d1461007257806341b3d185146100955780635f515226146100be578063d0e30db01461010b578063df6803d31461012d575b600080fd5b341561007d57600080fd5b6100936004808035906020019091905050610182565b005b34156100a057600080fd5b6100a8610362565b6040518082815260200191505060405180910390f35b34156100c957600080fd5b6100f5600480803573ffffffffffffffffffffffffffffffffffffffff16906020019091905050610368565b6040518082815260200191505060405180910390f35b6101136103b1565b604051808215151515815260200191505060405180910390f35b341561013857600080fd5b61014061051e565b604051808273ffffffffffffffffffffffffffffffffffffffff1673ffffffffffffffffffffffffffffffffffffffff16815260200191505060405180910390f35b600160003373ffffffffffffffffffffffffffffffffffffffff1673ffffffffffffffffffffffffffffffffffffffff168152602001908152602001600020548111151561035f573373ffffffffffffffffffffffffffffffffffffffff168160405160006040518083038185876187965a03f1925050501561035e5780600160003373ffffffffffffffffffffffffffffffffffffffff1673ffffffffffffffffffffffffffffffffffffffff16815260200190815260200160002060008282540392505081905550600260009054906101000a900473ffffffffffffffffffffffffffffffffffffffff1673ffffffffffffffffffffffffffffffffffffffff166310176f8633836040518363ffffffff167c0100000000000000000000000000000000000000000000000000000000028152600401808373ffffffffffffffffffffffffffffffffffffffff1673ffffffffffffffffffffffffffffffffffffffff16815260200182815260200180602001828103825260088152602001807f77697468647261770000000000000000000000000000000000000000000000008152506020019350505050600060405180830381600087803b151561034957600080fd5b6102c65a03f1151561035a57600080fd5b5050505b5b50565b60005481565b6000600160008373ffffffffffffffffffffffffffffffffffffffff1673ffffffffffffffffffffffffffffffffffffffff168152602001908152602001600020549050919050565b6000805434111561051b5734600160003373ffffffffffffffffffffffffffffffffffffffff1673ffffffffffffffffffffffffffffffffffffffff16815260200190815260200160002060008282540192505081905550600260009054906101000a900473ffffffffffffffffffffffffffffffffffffffff1673ffffffffffffffffffffffffffffffffffffffff166310176f8633346040518363ffffffff167c0100000000000000000000000000000000000000000000000000000000028152600401808373ffffffffffffffffffffffffffffffffffffffff1673ffffffffffffffffffffffffffffffffffffffff16815260200182815260200180602001828103825260078152602001807f6465706f736974000000000000000000000000000000000000000000000000008152506020019350505050600060405180830381600087803b151561050657600080fd5b6102c65a03f1151561051757600080fd5b5050505b90565b600260009054906101000a900473ffffffffffffffffffffffffffffffffffffffff16815600a165627a7a72305820880b7f209e046a3f1a3f5af10c89cd9586c08d130657af003570f10ffb1b81880029",
  "source": "pragma solidity 0.4.19;\n\ncontract TrustFund {\n  uint256 public minDeposit;\n  mapping (address => uint256) balances;\n  Logger public TrustLog;\n\n  function TrustFund(uint256 _minDeposit, address _log) public payable {\n      minDeposit = _minDeposit;\n      TrustLog = Logger(_log);\n  }\n\n  function deposit() public payable returns (bool) {\n    if (msg.value > minDeposit) {\n      balances[msg.sender]+=msg.value;\n      TrustLog.LogTransfer(msg.sender,msg.value,\"deposit\");\n    }\n  }\n\n  function withdraw(uint256 _amount) public {\n    if(_amount <= balances[msg.sender]) {\n      if(msg.sender.call.value(_amount)()) {\n        balances[msg.sender] -= _amount;\n        TrustLog.LogTransfer(msg.sender, _amount, \"withdraw\");\n      }\n    }\n  }\n\n  function checkBalance(address _addr) public view returns (uint256) {\n    return balances[_addr];\n  }\n}\n\ncontract Logger {\n  struct Message {\n    address sender;\n    uint256 amount;\n    string note;\n  }\n\n  Message[] History;\n  Message public LastLine;\n\n  function LogTransfer(address _sender, uint256 _amount, string _note) {\n    LastLine.sender = _sender;\n    LastLine.amount = _amount;\n    LastLine.note = _note;\n    History.push(LastLine);\n  }\n}",
  "sourcePath": "/home/hayek/proj/better_honey_pot/contracts/TrustFund.sol",
  "compiler": {
    "name": "solc",
    "version": "0.4.19+commit.c4cbbb05.Emscripten.clang"
  },
  "schemaVersion": "1.0.1",
  "updatedAt": "2018-02-16T03:12:06.172Z"
}